{
  "_format": "hh-sol-artifact-1",
  "contractName": "research",
  "sourceName": "contracts/Research.sol",
  "abi": [
    {
      "anonymous": false,
      "inputs": [
        {
          "indexed": true,
          "internalType": "uint256",
          "name": "publicationId",
          "type": "uint256"
        },
        {
          "indexed": true,
          "internalType": "address",
          "name": "researcher",
          "type": "address"
        }
      ],
      "name": "PublicationSubmitted",
      "type": "event"
    },
    {
      "anonymous": false,
      "inputs": [
        {
          "indexed": true,
          "internalType": "address",
          "name": "sender",
          "type": "address"
        },
        {
          "indexed": false,
          "internalType": "uint256",
          "name": "amount",
          "type": "uint256"
        }
      ],
      "name": "Received",
      "type": "event"
    },
    {
      "anonymous": false,
      "inputs": [
        {
          "indexed": true,
          "internalType": "address",
          "name": "staker",
          "type": "address"
        },
        {
          "indexed": false,
          "internalType": "uint256",
          "name": "amount",
          "type": "uint256"
        }
      ],
      "name": "Staked",
      "type": "event"
    },
    {
      "anonymous": false,
      "inputs": [
        {
          "indexed": true,
          "internalType": "address",
          "name": "staker",
          "type": "address"
        },
        {
          "indexed": false,
          "internalType": "uint256",
          "name": "amount",
          "type": "uint256"
        }
      ],
      "name": "Unstaked",
      "type": "event"
    },
    {
      "inputs": [
        {
          "internalType": "string",
          "name": "_title",
          "type": "string"
        },
        {
          "internalType": "string",
          "name": "_description",
          "type": "string"
        },
        {
          "internalType": "string",
          "name": "_fileHash",
          "type": "string"
        }
      ],
      "name": "addPublication",
      "outputs": [],
      "stateMutability": "nonpayable",
      "type": "function"
    },
    {
      "inputs": [
        {
          "internalType": "uint256",
          "name": "_id",
          "type": "uint256"
        },
        {
          "internalType": "string",
          "name": "_feedback",
          "type": "string"
        },
        {
          "internalType": "uint256",
          "name": "_score",
          "type": "uint256"
        }
      ],
      "name": "addReview",
      "outputs": [],
      "stateMutability": "nonpayable",
      "type": "function"
    },
    {
      "inputs": [
        {
          "internalType": "uint256",
          "name": "_id",
          "type": "uint256"
        },
        {
          "internalType": "address",
          "name": "_contributor",
          "type": "address"
        }
      ],
      "name": "allowContributor",
      "outputs": [],
      "stateMutability": "nonpayable",
      "type": "function"
    },
    {
      "inputs": [
        {
          "internalType": "uint256",
          "name": "_id",
          "type": "uint256"
        },
        {
          "internalType": "string",
          "name": "_description",
          "type": "string"
        }
      ],
      "name": "contribute",
      "outputs": [],
      "stateMutability": "nonpayable",
      "type": "function"
    },
    {
      "inputs": [
        {
          "internalType": "uint256",
          "name": "_id",
          "type": "uint256"
        }
      ],
      "name": "contributeFunds",
      "outputs": [],
      "stateMutability": "payable",
      "type": "function"
    },
    {
      "inputs": [
        {
          "internalType": "uint256",
          "name": "",
          "type": "uint256"
        },
        {
          "internalType": "address",
          "name": "",
          "type": "address"
        }
      ],
      "name": "contributors",
      "outputs": [
        {
          "internalType": "bool",
          "name": "",
          "type": "bool"
        }
      ],
      "stateMutability": "view",
      "type": "function"
    },
    {
      "inputs": [
        {
          "internalType": "uint256",
          "name": "_id",
          "type": "uint256"
        }
      ],
      "name": "distributeFunds",
      "outputs": [],
      "stateMutability": "nonpayable",
      "type": "function"
    },
    {
      "inputs": [
        {
          "internalType": "uint256",
          "name": "",
          "type": "uint256"
        },
        {
          "internalType": "uint256",
          "name": "",
          "type": "uint256"
        }
      ],
      "name": "filesHash",
      "outputs": [
        {
          "internalType": "string",
          "name": "",
          "type": "string"
        }
      ],
      "stateMutability": "view",
      "type": "function"
    },
    {
      "inputs": [
        {
          "internalType": "uint256",
          "name": "_id",
          "type": "uint256"
        }
      ],
      "name": "getAverageScore",
      "outputs": [
        {
          "internalType": "uint256",
          "name": "",
          "type": "uint256"
        }
      ],
      "stateMutability": "view",
      "type": "function"
    },
    {
      "inputs": [
        {
          "internalType": "uint256",
          "name": "_id",
          "type": "uint256"
        }
      ],
      "name": "getHashById",
      "outputs": [
        {
          "internalType": "string[]",
          "name": "",
          "type": "string[]"
        }
      ],
      "stateMutability": "view",
      "type": "function"
    },
    {
      "inputs": [
        {
          "internalType": "address",
          "name": "_owner",
          "type": "address"
        }
      ],
      "name": "getMessage",
      "outputs": [
        {
          "components": [
            {
              "internalType": "uint256",
              "name": "timestamp",
              "type": "uint256"
            },
            {
              "internalType": "uint256",
              "name": "id",
              "type": "uint256"
            },
            {
              "internalType": "address",
              "name": "userAddress",
              "type": "address"
            },
            {
              "internalType": "string",
              "name": "data",
              "type": "string"
            },
            {
              "internalType": "bool",
              "name": "Approved",
              "type": "bool"
            }
          ],
          "internalType": "struct research.Requests[]",
          "name": "",
          "type": "tuple[]"
        }
      ],
      "stateMutability": "view",
      "type": "function"
    },
    {
      "inputs": [
        {
          "internalType": "uint256",
          "name": "_id",
          "type": "uint256"
        }
      ],
      "name": "getPublicationById",
      "outputs": [
        {
          "components": [
            {
              "internalType": "uint256",
              "name": "id",
              "type": "uint256"
            },
            {
              "internalType": "address",
              "name": "researcher",
              "type": "address"
            },
            {
              "internalType": "string",
              "name": "title",
              "type": "string"
            },
            {
              "internalType": "string",
              "name": "description",
              "type": "string"
            },
            {
              "internalType": "string",
              "name": "hash",
              "type": "string"
            },
            {
              "internalType": "uint256",
              "name": "timestamp",
              "type": "uint256"
            },
            {
              "internalType": "bool",
              "name": "reviewed",
              "type": "bool"
            },
            {
              "internalType": "bool",
              "name": "rewarded",
              "type": "bool"
            },
            {
              "internalType": "uint256[]",
              "name": "reviewIds",
              "type": "uint256[]"
            },
            {
              "internalType": "address[]",
              "name": "contributors",
              "type": "address[]"
            },
            {
              "internalType": "address[]",
              "name": "reviewers",
              "type": "address[]"
            },
            {
              "internalType": "uint256",
              "name": "totalContributions",
              "type": "uint256"
            },
            {
              "internalType": "uint256",
              "name": "score",
              "type": "uint256"
            }
          ],
          "internalType": "struct research.Publication",
          "name": "",
          "type": "tuple"
        }
      ],
      "stateMutability": "view",
      "type": "function"
    },
    {
      "inputs": [
        {
          "internalType": "address",
          "name": "_owner",
          "type": "address"
        }
      ],
      "name": "getPublicationsByAddress",
      "outputs": [
        {
          "components": [
            {
              "internalType": "uint256",
              "name": "id",
              "type": "uint256"
            },
            {
              "internalType": "address",
              "name": "researcher",
              "type": "address"
            },
            {
              "internalType": "string",
              "name": "title",
              "type": "string"
            },
            {
              "internalType": "string",
              "name": "description",
              "type": "string"
            },
            {
              "internalType": "string",
              "name": "hash",
              "type": "string"
            },
            {
              "internalType": "uint256",
              "name": "timestamp",
              "type": "uint256"
            },
            {
              "internalType": "bool",
              "name": "reviewed",
              "type": "bool"
            },
            {
              "internalType": "bool",
              "name": "rewarded",
              "type": "bool"
            },
            {
              "internalType": "uint256[]",
              "name": "reviewIds",
              "type": "uint256[]"
            },
            {
              "internalType": "address[]",
              "name": "contributors",
              "type": "address[]"
            },
            {
              "internalType": "address[]",
              "name": "reviewers",
              "type": "address[]"
            },
            {
              "internalType": "uint256",
              "name": "totalContributions",
              "type": "uint256"
            },
            {
              "internalType": "uint256",
              "name": "score",
              "type": "uint256"
            }
          ],
          "internalType": "struct research.Publication[]",
          "name": "",
          "type": "tuple[]"
        }
      ],
      "stateMutability": "view",
      "type": "function"
    },
    {
      "inputs": [
        {
          "internalType": "uint256",
          "name": "_id",
          "type": "uint256"
        }
      ],
      "name": "getReview",
      "outputs": [
        {
          "components": [
            {
              "internalType": "address",
              "name": "reviewer",
              "type": "address"
            },
            {
              "internalType": "string",
              "name": "feedback",
              "type": "string"
            },
            {
              "internalType": "uint256",
              "name": "score",
              "type": "uint256"
            }
          ],
          "internalType": "struct research.Review[]",
          "name": "",
          "type": "tuple[]"
        }
      ],
      "stateMutability": "view",
      "type": "function"
    },
    {
      "inputs": [
        {
          "internalType": "uint256",
          "name": "",
          "type": "uint256"
        },
        {
          "internalType": "uint256",
          "name": "",
          "type": "uint256"
        }
      ],
      "name": "getReviews",
      "outputs": [
        {
          "internalType": "address",
          "name": "reviewer",
          "type": "address"
        },
        {
          "internalType": "string",
          "name": "feedback",
          "type": "string"
        },
        {
          "internalType": "uint256",
          "name": "score",
          "type": "uint256"
        }
      ],
      "stateMutability": "view",
      "type": "function"
    },
    {
      "inputs": [
        {
          "internalType": "uint256",
          "name": "_id",
          "type": "uint256"
        }
      ],
      "name": "getUserUpdates",
      "outputs": [
        {
          "components": [
            {
              "internalType": "uint256",
              "name": "timestamp",
              "type": "uint256"
            },
            {
              "internalType": "address",
              "name": "userAddress",
              "type": "address"
            },
            {
              "internalType": "string",
              "name": "description",
              "type": "string"
            },
            {
              "internalType": "string",
              "name": "data",
              "type": "string"
            }
          ],
          "internalType": "struct research.Updates[]",
          "name": "",
          "type": "tuple[]"
        }
      ],
      "stateMutability": "view",
      "type": "function"
    },
    {
      "inputs": [
        {
          "internalType": "uint256",
          "name": "",
          "type": "uint256"
        }
      ],
      "name": "isOwner",
      "outputs": [
        {
          "internalType": "address",
          "name": "",
          "type": "address"
        }
      ],
      "stateMutability": "view",
      "type": "function"
    },
    {
      "inputs": [
        {
          "internalType": "address",
          "name": "",
          "type": "address"
        },
        {
          "internalType": "uint256",
          "name": "",
          "type": "uint256"
        }
      ],
      "name": "messages",
      "outputs": [
        {
          "internalType": "uint256",
          "name": "timestamp",
          "type": "uint256"
        },
        {
          "internalType": "uint256",
          "name": "id",
          "type": "uint256"
        },
        {
          "internalType": "address",
          "name": "userAddress",
          "type": "address"
        },
        {
          "internalType": "string",
          "name": "data",
          "type": "string"
        },
        {
          "internalType": "bool",
          "name": "Approved",
          "type": "bool"
        }
      ],
      "stateMutability": "view",
      "type": "function"
    },
    {
      "inputs": [],
      "name": "publicationCounter",
      "outputs": [
        {
          "internalType": "uint256",
          "name": "",
          "type": "uint256"
        }
      ],
      "stateMutability": "view",
      "type": "function"
    },
    {
      "inputs": [
        {
          "internalType": "uint256",
          "name": "",
          "type": "uint256"
        }
      ],
      "name": "publications",
      "outputs": [
        {
          "internalType": "uint256",
          "name": "id",
          "type": "uint256"
        },
        {
          "internalType": "address",
          "name": "researcher",
          "type": "address"
        },
        {
          "internalType": "string",
          "name": "title",
          "type": "string"
        },
        {
          "internalType": "string",
          "name": "description",
          "type": "string"
        },
        {
          "internalType": "string",
          "name": "hash",
          "type": "string"
        },
        {
          "internalType": "uint256",
          "name": "timestamp",
          "type": "uint256"
        },
        {
          "internalType": "bool",
          "name": "reviewed",
          "type": "bool"
        },
        {
          "internalType": "bool",
          "name": "rewarded",
          "type": "bool"
        },
        {
          "internalType": "uint256",
          "name": "totalContributions",
          "type": "uint256"
        },
        {
          "internalType": "uint256",
          "name": "score",
          "type": "uint256"
        }
      ],
      "stateMutability": "view",
      "type": "function"
    },
    {
      "inputs": [
        {
          "internalType": "address",
          "name": "",
          "type": "address"
        },
        {
          "internalType": "uint256",
          "name": "",
          "type": "uint256"
        }
      ],
      "name": "publicationsByAddress",
      "outputs": [
        {
          "internalType": "uint256",
          "name": "id",
          "type": "uint256"
        },
        {
          "internalType": "address",
          "name": "researcher",
          "type": "address"
        },
        {
          "internalType": "string",
          "name": "title",
          "type": "string"
        },
        {
          "internalType": "string",
          "name": "description",
          "type": "string"
        },
        {
          "internalType": "string",
          "name": "hash",
          "type": "string"
        },
        {
          "internalType": "uint256",
          "name": "timestamp",
          "type": "uint256"
        },
        {
          "internalType": "bool",
          "name": "reviewed",
          "type": "bool"
        },
        {
          "internalType": "bool",
          "name": "rewarded",
          "type": "bool"
        },
        {
          "internalType": "uint256",
          "name": "totalContributions",
          "type": "uint256"
        },
        {
          "internalType": "uint256",
          "name": "score",
          "type": "uint256"
        }
      ],
      "stateMutability": "view",
      "type": "function"
    },
    {
      "inputs": [
        {
          "internalType": "uint256",
          "name": "",
          "type": "uint256"
        },
        {
          "internalType": "address",
          "name": "",
          "type": "address"
        },
        {
          "internalType": "uint256",
          "name": "",
          "type": "uint256"
        }
      ],
      "name": "requestContribution",
      "outputs": [
        {
          "internalType": "uint256",
          "name": "timestamp",
          "type": "uint256"
        },
        {
          "internalType": "uint256",
          "name": "id",
          "type": "uint256"
        },
        {
          "internalType": "address",
          "name": "userAddress",
          "type": "address"
        },
        {
          "internalType": "string",
          "name": "data",
          "type": "string"
        },
        {
          "internalType": "bool",
          "name": "Approved",
          "type": "bool"
        }
      ],
      "stateMutability": "view",
      "type": "function"
    },
    {
      "inputs": [],
      "name": "reviewCounter",
      "outputs": [
        {
          "internalType": "uint256",
          "name": "",
          "type": "uint256"
        }
      ],
      "stateMutability": "view",
      "type": "function"
    },
    {
      "inputs": [
        {
          "internalType": "uint256",
          "name": "",
          "type": "uint256"
        }
      ],
      "name": "reviews",
      "outputs": [
        {
          "internalType": "address",
          "name": "reviewer",
          "type": "address"
        },
        {
          "internalType": "string",
          "name": "feedback",
          "type": "string"
        },
        {
          "internalType": "uint256",
          "name": "score",
          "type": "uint256"
        }
      ],
      "stateMutability": "view",
      "type": "function"
    },
    {
      "inputs": [],
      "name": "stake",
      "outputs": [],
      "stateMutability": "payable",
      "type": "function"
    },
    {
      "inputs": [
        {
          "internalType": "address",
          "name": "",
          "type": "address"
        }
      ],
      "name": "stakes",
      "outputs": [
        {
          "internalType": "uint256",
          "name": "",
          "type": "uint256"
        }
      ],
      "stateMutability": "view",
      "type": "function"
    },
    {
      "inputs": [],
      "name": "totalStaked",
      "outputs": [
        {
          "internalType": "uint256",
          "name": "",
          "type": "uint256"
        }
      ],
      "stateMutability": "view",
      "type": "function"
    },
    {
      "inputs": [],
      "name": "unstake",
      "outputs": [],
      "stateMutability": "nonpayable",
      "type": "function"
    },
    {
      "inputs": [
        {
          "internalType": "uint256",
          "name": "_id",
          "type": "uint256"
        },
        {
          "internalType": "string",
          "name": "_fileHash",
          "type": "string"
        },
        {
          "internalType": "string",
          "name": "_description",
          "type": "string"
        }
      ],
      "name": "updatePublications",
      "outputs": [],
      "stateMutability": "nonpayable",
      "type": "function"
    },
    {
      "inputs": [
        {
          "internalType": "uint256",
          "name": "",
          "type": "uint256"
        },
        {
          "internalType": "uint256",
          "name": "",
          "type": "uint256"
        }
      ],
      "name": "userUpdates",
      "outputs": [
        {
          "internalType": "uint256",
          "name": "timestamp",
          "type": "uint256"
        },
        {
          "internalType": "address",
          "name": "userAddress",
          "type": "address"
        },
        {
          "internalType": "string",
          "name": "description",
          "type": "string"
        },
        {
          "internalType": "string",
          "name": "data",
          "type": "string"
        }
      ],
      "stateMutability": "view",
      "type": "function"
    }
  ],
  "bytecode": "0x608060405234801561001057600080fd5b50615ae780620000216000396000f3fe6080604052600436106101cd5760003560e01c8063817b1cd2116100f7578063c45d9bea11610095578063e7315f9911610064578063e7315f9914610723578063e7c360231461074c578063e83ddcea14610789578063f726f715146107c8576101cd565b8063c45d9bea14610651578063ca1146e014610692578063de3a2b59146106bb578063e168b3a8146106f8576101cd565b8063a86835cc116100d1578063a86835cc14610577578063b05c318b146105a2578063b12ff06c146105cb578063b516a73914610611576101cd565b8063817b1cd2146104e657806394cdf85f14610511578063990581b61461053a576101cd565b806339c7639c1161016f57806353a44faf1161013e57806353a44faf1461040457806355448fe114610443578063606db6171461048057806364a9d092146104bd576101cd565b806339c7639c146103645780633a4b66f1146103a15780633d862f1f146103ab57806348a05132146103e8576101cd565b80632de4ea64116101ab5780632de4ea64146102965780632def6620146102d35780633341f7bd146102ea57806337950cfb14610327576101cd565b806307058413146101d257806316934fc4146102135780631fd5bbab14610250575b600080fd5b3480156101de57600080fd5b506101f960048036038101906101f49190613f57565b6107f1565b60405161020a959493929190614073565b60405180910390f35b34801561021f57600080fd5b5061023a600480360381019061023591906140cd565b610906565b60405161024791906140fa565b60405180910390f35b34801561025c57600080fd5b5061027760048036038101906102729190614115565b61091e565b60405161028d9a99989796959493929190614142565b60405180910390f35b3480156102a257600080fd5b506102bd60048036038101906102b891906141f3565b610b44565b6040516102ca9190614233565b60405180910390f35b3480156102df57600080fd5b506102e8610bfd565b005b3480156102f657600080fd5b50610311600480360381019061030c91906140cd565b610da7565b60405161031e9190614628565b60405180910390f35b34801561033357600080fd5b5061034e60048036038101906103499190614115565b611224565b60405161035b9190614786565b60405180910390f35b34801561037057600080fd5b5061038b60048036038101906103869190614115565b61162f565b60405161039891906147a8565b60405180910390f35b6103a9611662565b005b3480156103b757600080fd5b506103d260048036038101906103cd9190614115565b6117c2565b6040516103df91906148ef565b60405180910390f35b61040260048036038101906103fd9190614115565b6119b8565b005b34801561041057600080fd5b5061042b600480360381019061042691906141f3565b611a8a565b60405161043a93929190614911565b60405180910390f35b34801561044f57600080fd5b5061046a600480360381019061046591906140cd565b611b79565b6040516104779190614a87565b60405180910390f35b34801561048c57600080fd5b506104a760048036038101906104a29190614115565b611d2e565b6040516104b49190614b6b565b60405180910390f35b3480156104c957600080fd5b506104e460048036038101906104df9190614cc2565b611e1a565b005b3480156104f257600080fd5b506104fb612065565b60405161050891906140fa565b60405180910390f35b34801561051d57600080fd5b5061053860048036038101906105339190614d4d565b61206d565b005b34801561054657600080fd5b50610561600480360381019061055c9190614115565b612386565b60405161056e9190614ece565b60405180910390f35b34801561058357600080fd5b5061058c6124ea565b60405161059991906140fa565b60405180910390f35b3480156105ae57600080fd5b506105c960048036038101906105c49190614ef0565b6124f0565b005b3480156105d757600080fd5b506105f260048036038101906105ed9190614f97565b612a64565b6040516106089a99989796959493929190614142565b60405180910390f35b34801561061d57600080fd5b50610638600480360381019061063391906141f3565b612ca7565b6040516106489493929190614fd7565b60405180910390f35b34801561065d57600080fd5b5061067860048036038101906106739190614f97565b612e24565b604051610689959493929190614073565b60405180910390f35b34801561069e57600080fd5b506106b960048036038101906106b4919061502a565b612f2c565b005b3480156106c757600080fd5b506106e260048036038101906106dd9190614115565b613411565b6040516106ef91906140fa565b60405180910390f35b34801561070457600080fd5b5061070d613559565b60405161071a91906140fa565b60405180910390f35b34801561072f57600080fd5b5061074a6004803603810190610745919061506a565b61355f565b005b34801561075857600080fd5b50610773600480360381019061076e919061502a565b6137e6565b60405161078091906150c6565b60405180910390f35b34801561079557600080fd5b506107b060048036038101906107ab9190614115565b613815565b6040516107bf93929190614911565b60405180910390f35b3480156107d457600080fd5b506107ef60048036038101906107ea9190614115565b6138e7565b005b6004602052826000526040600020602052816000526040600020818154811061081957600080fd5b906000526020600020906005020160009250925050508060000154908060010154908060020160009054906101000a900473ffffffffffffffffffffffffffffffffffffffff169080600301805461087090615110565b80601f016020809104026020016040519081016040528092919081815260200182805461089c90615110565b80156108e95780601f106108be576101008083540402835291602001916108e9565b820191906000526020600020905b8154815290600101906020018083116108cc57829003601f168201915b5050505050908060040160009054906101000a900460ff16905085565b600c6020528060005260406000206000915090505481565b60006020528060005260406000206000915090508060000154908060010160009054906101000a900473ffffffffffffffffffffffffffffffffffffffff169080600201805461096d90615110565b80601f016020809104026020016040519081016040528092919081815260200182805461099990615110565b80156109e65780601f106109bb576101008083540402835291602001916109e6565b820191906000526020600020905b8154815290600101906020018083116109c957829003601f168201915b5050505050908060030180546109fb90615110565b80601f0160208091040260200160405190810160405280929190818152602001828054610a2790615110565b8015610a745780601f10610a4957610100808354040283529160200191610a74565b820191906000526020600020905b815481529060010190602001808311610a5757829003601f168201915b505050505090806004018054610a8990615110565b80601f0160208091040260200160405190810160405280929190818152602001828054610ab590615110565b8015610b025780601f10610ad757610100808354040283529160200191610b02565b820191906000526020600020905b815481529060010190602001808311610ae557829003601f168201915b5050505050908060050154908060060160009054906101000a900460ff16908060060160019054906101000a900460ff169080600a01549080600b015490508a565b60076020528160005260406000208181548110610b6057600080fd5b90600052602060002001600091509150508054610b7c90615110565b80601f0160208091040260200160405190810160405280929190818152602001828054610ba890615110565b8015610bf55780601f10610bca57610100808354040283529160200191610bf5565b820191906000526020600020905b815481529060010190602001808311610bd857829003601f168201915b505050505081565b670de0b6b3a7640000600c60003373ffffffffffffffffffffffffffffffffffffffff1673ffffffffffffffffffffffffffffffffffffffff1681526020019081526020016000205414610c86576040517f08c379a0000000000000000000000000000000000000000000000000000000008152600401610c7d906151b3565b60405180910390fd5b6000600c60003373ffffffffffffffffffffffffffffffffffffffff1673ffffffffffffffffffffffffffffffffffffffff1681526020019081526020016000205490506000600c60003373ffffffffffffffffffffffffffffffffffffffff1673ffffffffffffffffffffffffffffffffffffffff168152602001908152602001600020819055503373ffffffffffffffffffffffffffffffffffffffff166108fc829081150290604051600060405180830381858888f19350505050158015610d55573d6000803e3d6000fd5b503373ffffffffffffffffffffffffffffffffffffffff167f0f5bb82176feb1b5e747e28471aa92156a04d9f3ab9f45f28e2d704232b93f7582604051610d9c91906140fa565b60405180910390a250565b6060600560008373ffffffffffffffffffffffffffffffffffffffff1673ffffffffffffffffffffffffffffffffffffffff168152602001908152602001600020805480602002602001604051908101604052809291908181526020016000905b8282101561121957838290600052602060002090600c0201604051806101a0016040529081600082015481526020016001820160009054906101000a900473ffffffffffffffffffffffffffffffffffffffff1673ffffffffffffffffffffffffffffffffffffffff1673ffffffffffffffffffffffffffffffffffffffff168152602001600282018054610e9c90615110565b80601f0160208091040260200160405190810160405280929190818152602001828054610ec890615110565b8015610f155780601f10610eea57610100808354040283529160200191610f15565b820191906000526020600020905b815481529060010190602001808311610ef857829003601f168201915b50505050508152602001600382018054610f2e90615110565b80601f0160208091040260200160405190810160405280929190818152602001828054610f5a90615110565b8015610fa75780601f10610f7c57610100808354040283529160200191610fa7565b820191906000526020600020905b815481529060010190602001808311610f8a57829003601f168201915b50505050508152602001600482018054610fc090615110565b80601f0160208091040260200160405190810160405280929190818152602001828054610fec90615110565b80156110395780601f1061100e57610100808354040283529160200191611039565b820191906000526020600020905b81548152906001019060200180831161101c57829003601f168201915b50505050508152602001600582015481526020016006820160009054906101000a900460ff161515151581526020016006820160019054906101000a900460ff16151515158152602001600782018054806020026020016040519081016040528092919081815260200182805480156110d157602002820191906000526020600020905b8154815260200190600101908083116110bd575b505050505081526020016008820180548060200260200160405190810160405280929190818152602001828054801561115f57602002820191906000526020600020905b8160009054906101000a900473ffffffffffffffffffffffffffffffffffffffff1673ffffffffffffffffffffffffffffffffffffffff1681526020019060010190808311611115575b50505050508152602001600982018054806020026020016040519081016040528092919081815260200182805480156111ed57602002820191906000526020600020905b8160009054906101000a900473ffffffffffffffffffffffffffffffffffffffff1673ffffffffffffffffffffffffffffffffffffffff16815260200190600101908083116111a3575b50505050508152602001600a8201548152602001600b8201548152505081526020019060010190610e08565b505050509050919050565b61122c613c95565b600080838152602001908152602001600020604051806101a0016040529081600082015481526020016001820160009054906101000a900473ffffffffffffffffffffffffffffffffffffffff1673ffffffffffffffffffffffffffffffffffffffff1673ffffffffffffffffffffffffffffffffffffffff1681526020016002820180546112ba90615110565b80601f01602080910402602001604051908101604052809291908181526020018280546112e690615110565b80156113335780601f1061130857610100808354040283529160200191611333565b820191906000526020600020905b81548152906001019060200180831161131657829003601f168201915b5050505050815260200160038201805461134c90615110565b80601f016020809104026020016040519081016040528092919081815260200182805461137890615110565b80156113c55780601f1061139a576101008083540402835291602001916113c5565b820191906000526020600020905b8154815290600101906020018083116113a857829003601f168201915b505050505081526020016004820180546113de90615110565b80601f016020809104026020016040519081016040528092919081815260200182805461140a90615110565b80156114575780601f1061142c57610100808354040283529160200191611457565b820191906000526020600020905b81548152906001019060200180831161143a57829003601f168201915b50505050508152602001600582015481526020016006820160009054906101000a900460ff161515151581526020016006820160019054906101000a900460ff16151515158152602001600782018054806020026020016040519081016040528092919081815260200182805480156114ef57602002820191906000526020600020905b8154815260200190600101908083116114db575b505050505081526020016008820180548060200260200160405190810160405280929190818152602001828054801561157d57602002820191906000526020600020905b8160009054906101000a900473ffffffffffffffffffffffffffffffffffffffff1673ffffffffffffffffffffffffffffffffffffffff1681526020019060010190808311611533575b505050505081526020016009820180548060200260200160405190810160405280929190818152602001828054801561160b57602002820191906000526020600020905b8160009054906101000a900473ffffffffffffffffffffffffffffffffffffffff1673ffffffffffffffffffffffffffffffffffffffff16815260200190600101908083116115c1575b50505050508152602001600a8201548152602001600b820154815250509050919050565b60066020528060005260406000206000915054906101000a900473ffffffffffffffffffffffffffffffffffffffff1681565b670de0b6b3a764000034146116ac576040517f08c379a00000000000000000000000000000000000000000000000000000000081526004016116a39061521f565b60405180910390fd5b6000600c60003373ffffffffffffffffffffffffffffffffffffffff1673ffffffffffffffffffffffffffffffffffffffff168152602001908152602001600020541461172e576040517f08c379a00000000000000000000000000000000000000000000000000000000081526004016117259061528b565b60405180910390fd5b34600c60003373ffffffffffffffffffffffffffffffffffffffff1673ffffffffffffffffffffffffffffffffffffffff168152602001908152602001600020819055503373ffffffffffffffffffffffffffffffffffffffff167f9e71bc8eea02a63969f509818f2dafb9254532904319f9dbda79b67bd34a5f3d346040516117b891906140fa565b60405180910390a2565b606060036000838152602001908152602001600020805480602002602001604051908101604052809291908181526020016000905b828210156119ad5783829060005260206000209060040201604051806080016040529081600082015481526020016001820160009054906101000a900473ffffffffffffffffffffffffffffffffffffffff1673ffffffffffffffffffffffffffffffffffffffff1673ffffffffffffffffffffffffffffffffffffffff16815260200160028201805461188a90615110565b80601f01602080910402602001604051908101604052809291908181526020018280546118b690615110565b80156119035780601f106118d857610100808354040283529160200191611903565b820191906000526020600020905b8154815290600101906020018083116118e657829003601f168201915b5050505050815260200160038201805461191c90615110565b80601f016020809104026020016040519081016040528092919081815260200182805461194890615110565b80156119955780601f1061196a57610100808354040283529160200191611995565b820191906000526020600020905b81548152906001019060200180831161197857829003601f168201915b505050505081525050815260200190600101906117f7565b505050509050919050565b600034116119fb576040517f08c379a00000000000000000000000000000000000000000000000000000000081526004016119f29061531d565b60405180910390fd5b66038d7ea4c6800034611a0e919061536c565b600080838152602001908152602001600020600a016000828254611a3291906153a0565b925050819055503373ffffffffffffffffffffffffffffffffffffffff167f88a5966d370b9919b20f3e2c13ff65706f196a4e32cc2c12bf57088f8852587434604051611a7f91906140fa565b60405180910390a250565b60026020528160005260406000208181548110611aa657600080fd5b9060005260206000209060030201600091509150508060000160009054906101000a900473ffffffffffffffffffffffffffffffffffffffff1690806001018054611af090615110565b80601f0160208091040260200160405190810160405280929190818152602001828054611b1c90615110565b8015611b695780601f10611b3e57610100808354040283529160200191611b69565b820191906000526020600020905b815481529060010190602001808311611b4c57829003601f168201915b5050505050908060020154905083565b6060600960008373ffffffffffffffffffffffffffffffffffffffff1673ffffffffffffffffffffffffffffffffffffffff168152602001908152602001600020805480602002602001604051908101604052809291908181526020016000905b82821015611d2357838290600052602060002090600502016040518060a001604052908160008201548152602001600182015481526020016002820160009054906101000a900473ffffffffffffffffffffffffffffffffffffffff1673ffffffffffffffffffffffffffffffffffffffff1673ffffffffffffffffffffffffffffffffffffffff168152602001600382018054611c7790615110565b80601f0160208091040260200160405190810160405280929190818152602001828054611ca390615110565b8015611cf05780601f10611cc557610100808354040283529160200191611cf0565b820191906000526020600020905b815481529060010190602001808311611cd357829003601f168201915b505050505081526020016004820160009054906101000a900460ff16151515158152505081526020019060010190611bda565b505050509050919050565b606060076000838152602001908152602001600020805480602002602001604051908101604052809291908181526020016000905b82821015611e0f578382906000526020600020018054611d8290615110565b80601f0160208091040260200160405190810160405280929190818152602001828054611dae90615110565b8015611dfb5780601f10611dd057610100808354040283529160200191611dfb565b820191906000526020600020905b815481529060010190602001808311611dde57829003601f168201915b505050505081526020019060010190611d63565b505050509050919050565b826006600082815260200190815260200160002060009054906101000a900473ffffffffffffffffffffffffffffffffffffffff1673ffffffffffffffffffffffffffffffffffffffff163373ffffffffffffffffffffffffffffffffffffffff161480611ee257506008600082815260200190815260200160002060003373ffffffffffffffffffffffffffffffffffffffff1673ffffffffffffffffffffffffffffffffffffffff16815260200190815260200160002060009054906101000a900460ff165b611f21576040517f08c379a0000000000000000000000000000000000000000000000000000000008152600401611f1890615446565b60405180910390fd5b6007600085815260200190815260200160002083908060018154018082558091505060019003906000526020600020016000909190919091509081611f669190615612565b50600060405180608001604052804281526020013373ffffffffffffffffffffffffffffffffffffffff168152602001848152602001858152509050600360008681526020019081526020016000208190806001815401808255809150506001900390600052602060002090600402016000909190919091506000820151816000015560208201518160010160006101000a81548173ffffffffffffffffffffffffffffffffffffffff021916908373ffffffffffffffffffffffffffffffffffffffff16021790555060408201518160020190816120459190615612565b50606082015181600301908161205b9190615612565b5050505050505050565b600047905090565b6000600c60003373ffffffffffffffffffffffffffffffffffffffff1673ffffffffffffffffffffffffffffffffffffffff16815260200190815260200160002054116120ef576040517f08c379a00000000000000000000000000000000000000000000000000000000081526004016120e690615756565b60405180910390fd5b600060405180606001604052803373ffffffffffffffffffffffffffffffffffffffff16815260200184815260200183815250905060006001600b5461213591906153a0565b9050600b600081548092919061214a90615776565b91905055506002600086815260200190815260200160002082908060018154018082558091505060019003906000526020600020906003020160009091909190915060008201518160000160006101000a81548173ffffffffffffffffffffffffffffffffffffffff021916908373ffffffffffffffffffffffffffffffffffffffff16021790555060208201518160010190816121e89190615612565b50604082015181600201555050600080868152602001908152602001600020600701819080600181540180825580915050600190039060005260206000200160009091909190915055600080868152602001908152602001600020600901339080600181540180825580915050600190039060005260206000200160009091909190916101000a81548173ffffffffffffffffffffffffffffffffffffffff021916908373ffffffffffffffffffffffffffffffffffffffff160217905550816001600083815260200190815260200160002060008201518160000160006101000a81548173ffffffffffffffffffffffffffffffffffffffff021916908373ffffffffffffffffffffffffffffffffffffffff16021790555060208201518160010190816123179190615612565b5060408201518160020155905050600160008087815260200190815260200160002060060160006101000a81548160ff02191690831515021790555082600080878152602001908152602001600020600b01600082825461237891906153a0565b925050819055505050505050565b606060026000838152602001908152602001600020805480602002602001604051908101604052809291908181526020016000905b828210156124df57838290600052602060002090600302016040518060600160405290816000820160009054906101000a900473ffffffffffffffffffffffffffffffffffffffff1673ffffffffffffffffffffffffffffffffffffffff1673ffffffffffffffffffffffffffffffffffffffff16815260200160018201805461244490615110565b80601f016020809104026020016040519081016040528092919081815260200182805461247090615110565b80156124bd5780601f10612492576101008083540402835291602001916124bd565b820191906000526020600020905b8154815290600101906020018083116124a057829003601f168201915b50505050508152602001600282015481525050815260200190600101906123bb565b505050509050919050565b600a5481565b600a600081548092919061250390615776565b91905055506000604051806101a00160405280600a5481526020013373ffffffffffffffffffffffffffffffffffffffff168152602001858152602001848152602001838152602001428152602001600015158152602001600015158152602001600067ffffffffffffffff81111561257f5761257e614b97565b5b6040519080825280602002602001820160405280156125ad5781602001602082028036833780820191505090505b508152602001600067ffffffffffffffff8111156125ce576125cd614b97565b5b6040519080825280602002602001820160405280156125fc5781602001602082028036833780820191505090505b508152602001600067ffffffffffffffff81111561261d5761261c614b97565b5b60405190808252806020026020018201604052801561264b5781602001602082028036833780820191505090505b508152602001600081526020016000815250905080600080600a5481526020019081526020016000206000820151816000015560208201518160010160006101000a81548173ffffffffffffffffffffffffffffffffffffffff021916908373ffffffffffffffffffffffffffffffffffffffff16021790555060408201518160020190816126da9190615612565b5060608201518160030190816126f09190615612565b5060808201518160040190816127069190615612565b5060a0820151816005015560c08201518160060160006101000a81548160ff02191690831515021790555060e08201518160060160016101000a81548160ff02191690831515021790555061010082015181600701908051906020019061276e929190613d17565b5061012082015181600801908051906020019061278c929190613d64565b506101408201518160090190805190602001906127aa929190613d64565b5061016082015181600a015561018082015181600b0155905050600560003373ffffffffffffffffffffffffffffffffffffffff1673ffffffffffffffffffffffffffffffffffffffff1681526020019081526020016000208190806001815401808255809150506001900390600052602060002090600c02016000909190919091506000820151816000015560208201518160010160006101000a81548173ffffffffffffffffffffffffffffffffffffffff021916908373ffffffffffffffffffffffffffffffffffffffff16021790555060408201518160020190816128939190615612565b5060608201518160030190816128a99190615612565b5060808201518160040190816128bf9190615612565b5060a0820151816005015560c08201518160060160006101000a81548160ff02191690831515021790555060e08201518160060160016101000a81548160ff021916908315150217905550610100820151816007019080519060200190612927929190613d17565b50610120820151816008019080519060200190612945929190613d64565b50610140820151816009019080519060200190612963929190613d64565b5061016082015181600a015561018082015181600b0155505060076000600a548152602001908152602001600020829080600181540180825580915050600190039060005260206000200160009091909190915090816129c39190615612565b503360066000600a54815260200190815260200160002060006101000a81548173ffffffffffffffffffffffffffffffffffffffff021916908373ffffffffffffffffffffffffffffffffffffffff1602179055503373ffffffffffffffffffffffffffffffffffffffff16600a547fc531c31b7b8399a6fb656c936b490c23f870bae5262e87b8d24b0770572d409760405160405180910390a350505050565b60056020528160005260406000208181548110612a8057600080fd5b90600052602060002090600c0201600091509150508060000154908060010160009054906101000a900473ffffffffffffffffffffffffffffffffffffffff1690806002018054612ad090615110565b80601f0160208091040260200160405190810160405280929190818152602001828054612afc90615110565b8015612b495780601f10612b1e57610100808354040283529160200191612b49565b820191906000526020600020905b815481529060010190602001808311612b2c57829003601f168201915b505050505090806003018054612b5e90615110565b80601f0160208091040260200160405190810160405280929190818152602001828054612b8a90615110565b8015612bd75780601f10612bac57610100808354040283529160200191612bd7565b820191906000526020600020905b815481529060010190602001808311612bba57829003601f168201915b505050505090806004018054612bec90615110565b80601f0160208091040260200160405190810160405280929190818152602001828054612c1890615110565b8015612c655780601f10612c3a57610100808354040283529160200191612c65565b820191906000526020600020905b815481529060010190602001808311612c4857829003601f168201915b5050505050908060050154908060060160009054906101000a900460ff16908060060160019054906101000a900460ff169080600a01549080600b015490508a565b60036020528160005260406000208181548110612cc357600080fd5b9060005260206000209060040201600091509150508060000154908060010160009054906101000a900473ffffffffffffffffffffffffffffffffffffffff1690806002018054612d1390615110565b80601f0160208091040260200160405190810160405280929190818152602001828054612d3f90615110565b8015612d8c5780601f10612d6157610100808354040283529160200191612d8c565b820191906000526020600020905b815481529060010190602001808311612d6f57829003601f168201915b505050505090806003018054612da190615110565b80601f0160208091040260200160405190810160405280929190818152602001828054612dcd90615110565b8015612e1a5780601f10612def57610100808354040283529160200191612e1a565b820191906000526020600020905b815481529060010190602001808311612dfd57829003601f168201915b5050505050905084565b60096020528160005260406000208181548110612e4057600080fd5b9060005260206000209060050201600091509150508060000154908060010154908060020160009054906101000a900473ffffffffffffffffffffffffffffffffffffffff1690806003018054612e9690615110565b80601f0160208091040260200160405190810160405280929190818152602001828054612ec290615110565b8015612f0f5780601f10612ee457610100808354040283529160200191612f0f565b820191906000526020600020905b815481529060010190602001808311612ef257829003601f168201915b5050505050908060040160009054906101000a900460ff16905085565b816006600082815260200190815260200160002060009054906101000a900473ffffffffffffffffffffffffffffffffffffffff1673ffffffffffffffffffffffffffffffffffffffff163373ffffffffffffffffffffffffffffffffffffffff1614612fce576040517f08c379a0000000000000000000000000000000000000000000000000000000008152600401612fc590615830565b60405180910390fd5b60016008600085815260200190815260200160002060008473ffffffffffffffffffffffffffffffffffffffff1673ffffffffffffffffffffffffffffffffffffffff16815260200190815260200160002060006101000a81548160ff021916908315150217905550600080848152602001908152602001600020600801829080600181540180825580915050600190039060005260206000200160009091909190916101000a81548173ffffffffffffffffffffffffffffffffffffffff021916908373ffffffffffffffffffffffffffffffffffffffff16021790555060006040518060a001604052804281526020018581526020013373ffffffffffffffffffffffffffffffffffffffff1681526020016040518060400160405280601681526020017f596f752063616e20636f6e74726962757465206e6f77000000000000000000008152508152602001600115158152509050600960008473ffffffffffffffffffffffffffffffffffffffff1673ffffffffffffffffffffffffffffffffffffffff168152602001908152602001600020819080600181540180825580915050600190039060005260206000209060050201600090919091909150600082015181600001556020820151816001015560408201518160020160006101000a81548173ffffffffffffffffffffffffffffffffffffffff021916908373ffffffffffffffffffffffffffffffffffffffff16021790555060608201518160030190816131ff9190615612565b5060808201518160040160006101000a81548160ff0219169083151502179055505050600560008473ffffffffffffffffffffffffffffffffffffffff1673ffffffffffffffffffffffffffffffffffffffff16815260200190815260200160002060008086815260200190815260200160002090806001815401808255809150506001900390600052602060002090600c0201600090919091909150600082015481600001556001820160009054906101000a900473ffffffffffffffffffffffffffffffffffffffff168160010160006101000a81548173ffffffffffffffffffffffffffffffffffffffff021916908373ffffffffffffffffffffffffffffffffffffffff160217905550600282018160020190816133219190615866565b50600382018160030190816133369190615866565b506004820181600401908161334b9190615866565b50600582015481600501556006820160009054906101000a900460ff168160060160006101000a81548160ff0219169083151502179055506006820160019054906101000a900460ff168160060160016101000a81548160ff02191690831515021790555060078201816007019080546133c6929190613dee565b5060088201816008019080546133dd929190613e40565b5060098201816009019080546133f4929190613e40565b50600a82015481600a0155600b82015481600b0155505050505050565b60006001151560008084815260200190815260200160002060060160009054906101000a900460ff1615151461347c576040517f08c379a0000000000000000000000000000000000000000000000000000000008152600401613473906159c0565b60405180910390fd5b60008060008481526020019081526020016000206007018054806020026020016040519081016040528092919081815260200182805480156134dd57602002820191906000526020600020905b8154815260200190600101908083116134c9575b505050505090506000805b82518110156135425760016000848381518110613508576135076159e0565b5b60200260200101518152602001908152602001600020600201548261352d91906153a0565b9150808061353a90615776565b9150506134e8565b508151816135509190615a3e565b92505050919050565b600b5481565b60006040518060a001604052804281526020018481526020013373ffffffffffffffffffffffffffffffffffffffff1681526020018381526020016000151581525090506004600084815260200190815260200160002060003373ffffffffffffffffffffffffffffffffffffffff1673ffffffffffffffffffffffffffffffffffffffff168152602001908152602001600020819080600181540180825580915050600190039060005260206000209060050201600090919091909150600082015181600001556020820151816001015560408201518160020160006101000a81548173ffffffffffffffffffffffffffffffffffffffff021916908373ffffffffffffffffffffffffffffffffffffffff160217905550606082015181600301908161368d9190615612565b5060808201518160040160006101000a81548160ff02191690831515021790555050506009600080600086815260200190815260200160002060010160009054906101000a900473ffffffffffffffffffffffffffffffffffffffff1673ffffffffffffffffffffffffffffffffffffffff1673ffffffffffffffffffffffffffffffffffffffff168152602001908152602001600020819080600181540180825580915050600190039060005260206000209060050201600090919091909150600082015181600001556020820151816001015560408201518160020160006101000a81548173ffffffffffffffffffffffffffffffffffffffff021916908373ffffffffffffffffffffffffffffffffffffffff16021790555060608201518160030190816137be9190615612565b5060808201518160040160006101000a81548160ff0219169083151502179055505050505050565b60086020528160005260406000206020528060005260406000206000915091509054906101000a900460ff1681565b60016020528060005260406000206000915090508060000160009054906101000a900473ffffffffffffffffffffffffffffffffffffffff169080600101805461385e90615110565b80601f016020809104026020016040519081016040528092919081815260200182805461388a90615110565b80156138d75780601f106138ac576101008083540402835291602001916138d7565b820191906000526020600020905b8154815290600101906020018083116138ba57829003601f168201915b5050505050908060020154905083565b806006600082815260200190815260200160002060009054906101000a900473ffffffffffffffffffffffffffffffffffffffff1673ffffffffffffffffffffffffffffffffffffffff163373ffffffffffffffffffffffffffffffffffffffff1614613989576040517f08c379a000000000000000000000000000000000000000000000000000000000815260040161398090615830565b60405180910390fd5b6000806000848152602001908152602001600020600a0154905060006064603c836139b49190615a6f565b6139be9190615a3e565b905060006064601e846139d19190615a6f565b6139db9190615a3e565b905060006064600a856139ee9190615a6f565b6139f89190615a3e565b905060008087815260200190815260200160002060010160009054906101000a900473ffffffffffffffffffffffffffffffffffffffff1673ffffffffffffffffffffffffffffffffffffffff166108fc849081150290604051600060405180830381858888f19350505050158015613a75573d6000803e3d6000fd5b5060005b60008088815260200190815260200160002060080180549050811015613b735760008060008981526020019081526020016000206008018281548110613ac257613ac16159e0565b5b9060005260206000200160009054906101000a900473ffffffffffffffffffffffffffffffffffffffff16905060008060008a81526020019081526020016000206008018054905085613b159190615a3e565b90508173ffffffffffffffffffffffffffffffffffffffff166108fc829081150290604051600060405180830381858888f19350505050158015613b5d573d6000803e3d6000fd5b5050508080613b6b90615776565b915050613a79565b5060005b60008088815260200190815260200160002060090180549050811015613c715760008060008981526020019081526020016000206009018281548110613bc057613bbf6159e0565b5b9060005260206000200160009054906101000a900473ffffffffffffffffffffffffffffffffffffffff16905060008060008a81526020019081526020016000206009018054905084613c139190615a3e565b90508173ffffffffffffffffffffffffffffffffffffffff166108fc829081150290604051600060405180830381858888f19350505050158015613c5b573d6000803e3d6000fd5b5050508080613c6990615776565b915050613b77565b506000806000888152602001908152602001600020600a0181905550505050505050565b604051806101a0016040528060008152602001600073ffffffffffffffffffffffffffffffffffffffff1681526020016060815260200160608152602001606081526020016000815260200160001515815260200160001515815260200160608152602001606081526020016060815260200160008152602001600081525090565b828054828255906000526020600020908101928215613d53579160200282015b82811115613d52578251825591602001919060010190613d37565b5b509050613d609190613e92565b5090565b828054828255906000526020600020908101928215613ddd579160200282015b82811115613ddc5782518260006101000a81548173ffffffffffffffffffffffffffffffffffffffff021916908373ffffffffffffffffffffffffffffffffffffffff16021790555091602001919060010190613d84565b5b509050613dea9190613e92565b5090565b828054828255906000526020600020908101928215613e2f5760005260206000209182015b82811115613e2e578254825591600101919060010190613e13565b5b509050613e3c9190613e92565b5090565b828054828255906000526020600020908101928215613e815760005260206000209182015b82811115613e80578254825591600101919060010190613e65565b5b509050613e8e9190613e92565b5090565b5b80821115613eab576000816000905550600101613e93565b5090565b6000604051905090565b600080fd5b600080fd5b6000819050919050565b613ed681613ec3565b8114613ee157600080fd5b50565b600081359050613ef381613ecd565b92915050565b600073ffffffffffffffffffffffffffffffffffffffff82169050919050565b6000613f2482613ef9565b9050919050565b613f3481613f19565b8114613f3f57600080fd5b50565b600081359050613f5181613f2b565b92915050565b600080600060608486031215613f7057613f6f613eb9565b5b6000613f7e86828701613ee4565b9350506020613f8f86828701613f42565b9250506040613fa086828701613ee4565b9150509250925092565b613fb381613ec3565b82525050565b613fc281613f19565b82525050565b600081519050919050565b600082825260208201905092915050565b60005b83811015614002578082015181840152602081019050613fe7565b60008484015250505050565b6000601f19601f8301169050919050565b600061402a82613fc8565b6140348185613fd3565b9350614044818560208601613fe4565b61404d8161400e565b840191505092915050565b60008115159050919050565b61406d81614058565b82525050565b600060a0820190506140886000830188613faa565b6140956020830187613faa565b6140a26040830186613fb9565b81810360608301526140b4818561401f565b90506140c36080830184614064565b9695505050505050565b6000602082840312156140e3576140e2613eb9565b5b60006140f184828501613f42565b91505092915050565b600060208201905061410f6000830184613faa565b92915050565b60006020828403121561412b5761412a613eb9565b5b600061413984828501613ee4565b91505092915050565b600061014082019050614158600083018d613faa565b614165602083018c613fb9565b8181036040830152614177818b61401f565b9050818103606083015261418b818a61401f565b9050818103608083015261419f818961401f565b90506141ae60a0830188613faa565b6141bb60c0830187614064565b6141c860e0830186614064565b6141d6610100830185613faa565b6141e4610120830184613faa565b9b9a5050505050505050505050565b6000806040838503121561420a57614209613eb9565b5b600061421885828601613ee4565b925050602061422985828601613ee4565b9150509250929050565b6000602082019050818103600083015261424d818461401f565b905092915050565b600081519050919050565b600082825260208201905092915050565b6000819050602082019050919050565b61428a81613ec3565b82525050565b61429981613f19565b82525050565b600082825260208201905092915050565b60006142bb82613fc8565b6142c5818561429f565b93506142d5818560208601613fe4565b6142de8161400e565b840191505092915050565b6142f281614058565b82525050565b600081519050919050565b600082825260208201905092915050565b6000819050602082019050919050565b60006143308383614281565b60208301905092915050565b6000602082019050919050565b6000614354826142f8565b61435e8185614303565b935061436983614314565b8060005b8381101561439a5781516143818882614324565b975061438c8361433c565b92505060018101905061436d565b5085935050505092915050565b600081519050919050565b600082825260208201905092915050565b6000819050602082019050919050565b60006143df8383614290565b60208301905092915050565b6000602082019050919050565b6000614403826143a7565b61440d81856143b2565b9350614418836143c3565b8060005b8381101561444957815161443088826143d3565b975061443b836143eb565b92505060018101905061441c565b5085935050505092915050565b60006101a08301600083015161446f6000860182614281565b5060208301516144826020860182614290565b506040830151848203604086015261449a82826142b0565b915050606083015184820360608601526144b482826142b0565b915050608083015184820360808601526144ce82826142b0565b91505060a08301516144e360a0860182614281565b5060c08301516144f660c08601826142e9565b5060e083015161450960e08601826142e9565b506101008301518482036101008601526145238282614349565b91505061012083015184820361012086015261453f82826143f8565b91505061014083015184820361014086015261455b82826143f8565b915050610160830151614572610160860182614281565b50610180830151614587610180860182614281565b508091505092915050565b600061459e8383614456565b905092915050565b6000602082019050919050565b60006145be82614255565b6145c88185614260565b9350836020820285016145da85614271565b8060005b8581101561461657848403895281516145f78582614592565b9450614602836145a6565b925060208a019950506001810190506145de565b50829750879550505050505092915050565b6000602082019050818103600083015261464281846145b3565b905092915050565b60006101a0830160008301516146636000860182614281565b5060208301516146766020860182614290565b506040830151848203604086015261468e82826142b0565b915050606083015184820360608601526146a882826142b0565b915050608083015184820360808601526146c282826142b0565b91505060a08301516146d760a0860182614281565b5060c08301516146ea60c08601826142e9565b5060e08301516146fd60e08601826142e9565b506101008301518482036101008601526147178282614349565b91505061012083015184820361012086015261473382826143f8565b91505061014083015184820361014086015261474f82826143f8565b915050610160830151614766610160860182614281565b5061018083015161477b610180860182614281565b508091505092915050565b600060208201905081810360008301526147a0818461464a565b905092915050565b60006020820190506147bd6000830184613fb9565b92915050565b600081519050919050565b600082825260208201905092915050565b6000819050602082019050919050565b60006080830160008301516148076000860182614281565b50602083015161481a6020860182614290565b506040830151848203604086015261483282826142b0565b9150506060830151848203606086015261484c82826142b0565b9150508091505092915050565b600061486583836147ef565b905092915050565b6000602082019050919050565b6000614885826147c3565b61488f81856147ce565b9350836020820285016148a1856147df565b8060005b858110156148dd57848403895281516148be8582614859565b94506148c98361486d565b925060208a019950506001810190506148a5565b50829750879550505050505092915050565b60006020820190508181036000830152614909818461487a565b905092915050565b60006060820190506149266000830186613fb9565b8181036020830152614938818561401f565b90506149476040830184613faa565b949350505050565b600081519050919050565b600082825260208201905092915050565b6000819050602082019050919050565b600060a0830160008301516149936000860182614281565b5060208301516149a66020860182614281565b5060408301516149b96040860182614290565b50606083015184820360608601526149d182826142b0565b91505060808301516149e660808601826142e9565b508091505092915050565b60006149fd838361497b565b905092915050565b6000602082019050919050565b6000614a1d8261494f565b614a27818561495a565b935083602082028501614a398561496b565b8060005b85811015614a755784840389528151614a5685826149f1565b9450614a6183614a05565b925060208a01995050600181019050614a3d565b50829750879550505050505092915050565b60006020820190508181036000830152614aa18184614a12565b905092915050565b600081519050919050565b600082825260208201905092915050565b6000819050602082019050919050565b6000614ae183836142b0565b905092915050565b6000602082019050919050565b6000614b0182614aa9565b614b0b8185614ab4565b935083602082028501614b1d85614ac5565b8060005b85811015614b595784840389528151614b3a8582614ad5565b9450614b4583614ae9565b925060208a01995050600181019050614b21565b50829750879550505050505092915050565b60006020820190508181036000830152614b858184614af6565b905092915050565b600080fd5b600080fd5b7f4e487b7100000000000000000000000000000000000000000000000000000000600052604160045260246000fd5b614bcf8261400e565b810181811067ffffffffffffffff82111715614bee57614bed614b97565b5b80604052505050565b6000614c01613eaf565b9050614c0d8282614bc6565b919050565b600067ffffffffffffffff821115614c2d57614c2c614b97565b5b614c368261400e565b9050602081019050919050565b82818337600083830152505050565b6000614c65614c6084614c12565b614bf7565b905082815260208101848484011115614c8157614c80614b92565b5b614c8c848285614c43565b509392505050565b600082601f830112614ca957614ca8614b8d565b5b8135614cb9848260208601614c52565b91505092915050565b600080600060608486031215614cdb57614cda613eb9565b5b6000614ce986828701613ee4565b935050602084013567ffffffffffffffff811115614d0a57614d09613ebe565b5b614d1686828701614c94565b925050604084013567ffffffffffffffff811115614d3757614d36613ebe565b5b614d4386828701614c94565b9150509250925092565b600080600060608486031215614d6657614d65613eb9565b5b6000614d7486828701613ee4565b935050602084013567ffffffffffffffff811115614d9557614d94613ebe565b5b614da186828701614c94565b9250506040614db286828701613ee4565b9150509250925092565b600081519050919050565b600082825260208201905092915050565b6000819050602082019050919050565b6000606083016000830151614e006000860182614290565b5060208301518482036020860152614e1882826142b0565b9150506040830151614e2d6040860182614281565b508091505092915050565b6000614e448383614de8565b905092915050565b6000602082019050919050565b6000614e6482614dbc565b614e6e8185614dc7565b935083602082028501614e8085614dd8565b8060005b85811015614ebc5784840389528151614e9d8582614e38565b9450614ea883614e4c565b925060208a01995050600181019050614e84565b50829750879550505050505092915050565b60006020820190508181036000830152614ee88184614e59565b905092915050565b600080600060608486031215614f0957614f08613eb9565b5b600084013567ffffffffffffffff811115614f2757614f26613ebe565b5b614f3386828701614c94565b935050602084013567ffffffffffffffff811115614f5457614f53613ebe565b5b614f6086828701614c94565b925050604084013567ffffffffffffffff811115614f8157614f80613ebe565b5b614f8d86828701614c94565b9150509250925092565b60008060408385031215614fae57614fad613eb9565b5b6000614fbc85828601613f42565b9250506020614fcd85828601613ee4565b9150509250929050565b6000608082019050614fec6000830187613faa565b614ff96020830186613fb9565b818103604083015261500b818561401f565b9050818103606083015261501f818461401f565b905095945050505050565b6000806040838503121561504157615040613eb9565b5b600061504f85828601613ee4565b925050602061506085828601613f42565b9150509250929050565b6000806040838503121561508157615080613eb9565b5b600061508f85828601613ee4565b925050602083013567ffffffffffffffff8111156150b0576150af613ebe565b5b6150bc85828601614c94565b9150509250929050565b60006020820190506150db6000830184614064565b92915050565b7f4e487b7100000000000000000000000000000000000000000000000000000000600052602260045260246000fd5b6000600282049050600182168061512857607f821691505b60208210810361513b5761513a6150e1565b5b50919050565b7f596f7520686176656e2774207374616b6564203120455448206f72206861766560008201527f20616c726561647920756e7374616b6564000000000000000000000000000000602082015250565b600061519d603183613fd3565b91506151a882615141565b604082019050919050565b600060208201905081810360008301526151cc81615190565b9050919050565b7f596f752063616e206f6e6c79207374616b652065786163746c79203120455448600082015250565b6000615209602083613fd3565b9150615214826151d3565b602082019050919050565b60006020820190508181036000830152615238816151fc565b9050919050565b7f596f75206861766520616c7265616479207374616b6564000000000000000000600082015250565b6000615275601783613fd3565b91506152808261523f565b602082019050919050565b600060208201905081810360008301526152a481615268565b9050919050565b7f4d7573742073656e64206120706f73697469766520616d6f756e74206f66204560008201527f5448000000000000000000000000000000000000000000000000000000000000602082015250565b6000615307602283613fd3565b9150615312826152ab565b604082019050919050565b60006020820190508181036000830152615336816152fa565b9050919050565b7f4e487b7100000000000000000000000000000000000000000000000000000000600052601160045260246000fd5b600061537782613ec3565b915061538283613ec3565b925082820390508181111561539a5761539961533d565b5b92915050565b60006153ab82613ec3565b91506153b683613ec3565b92508282019050808211156153ce576153cd61533d565b5b92915050565b7f4f6e6c7920746865206f776e6572206f7220636f6e7472696275746f7273206360008201527f616e20706572666f726d207468697320616374696f6e00000000000000000000602082015250565b6000615430603683613fd3565b915061543b826153d4565b604082019050919050565b6000602082019050818103600083015261545f81615423565b9050919050565b60008190508160005260206000209050919050565b60006020601f8301049050919050565b600082821b905092915050565b6000600883026154c87fffffffffffffffffffffffffffffffffffffffffffffffffffffffffffffffff8261548b565b6154d2868361548b565b95508019841693508086168417925050509392505050565b6000819050919050565b600061550f61550a61550584613ec3565b6154ea565b613ec3565b9050919050565b6000819050919050565b615529836154f4565b61553d61553582615516565b848454615498565b825550505050565b600090565b615552615545565b61555d818484615520565b505050565b5b818110156155815761557660008261554a565b600181019050615563565b5050565b601f8211156155c65761559781615466565b6155a08461547b565b810160208510156155af578190505b6155c36155bb8561547b565b830182615562565b50505b505050565b600082821c905092915050565b60006155e9600019846008026155cb565b1980831691505092915050565b600061560283836155d8565b9150826002028217905092915050565b61561b82613fc8565b67ffffffffffffffff81111561563457615633614b97565b5b61563e8254615110565b615649828285615585565b600060209050601f83116001811461567c576000841561566a578287015190505b61567485826155f6565b8655506156dc565b601f19841661568a86615466565b60005b828110156156b25784890151825560018201915060208501945060208101905061568d565b868310156156cf57848901516156cb601f8916826155d8565b8355505b6001600288020188555050505b505050505050565b7f596f75206861766520746f207374616b65206265666f726520616464696e672060008201527f7265766965770000000000000000000000000000000000000000000000000000602082015250565b6000615740602683613fd3565b915061574b826156e4565b604082019050919050565b6000602082019050818103600083015261576f81615733565b9050919050565b600061578182613ec3565b91507fffffffffffffffffffffffffffffffffffffffffffffffffffffffffffffffff82036157b3576157b261533d565b5b600182019050919050565b7f4f6e6c7920746865206f776e65722063616e20706572666f726d20746869732060008201527f616374696f6e0000000000000000000000000000000000000000000000000000602082015250565b600061581a602683613fd3565b9150615825826157be565b604082019050919050565b600060208201905081810360008301526158498161580d565b9050919050565b60008154905061585f81615110565b9050919050565b81810361587457505061594c565b61587d82615850565b67ffffffffffffffff81111561589657615895614b97565b5b6158a08254615110565b6158ab828285615585565b6000601f8311600181146158da57600084156158c8578287015490505b6158d285826155f6565b865550615945565b601f1984166158e887615466565b96506158f386615466565b60005b8281101561591b578489015482556001820191506001850194506020810190506158f6565b868310156159385784890154615934601f8916826155d8565b8355505b6001600288020188555050505b5050505050505b565b7f5075626c69636174696f6e20686173206e6f74206265656e207265766965776560008201527f6420796574000000000000000000000000000000000000000000000000000000602082015250565b60006159aa602583613fd3565b91506159b58261594e565b604082019050919050565b600060208201905081810360008301526159d98161599d565b9050919050565b7f4e487b7100000000000000000000000000000000000000000000000000000000600052603260045260246000fd5b7f4e487b7100000000000000000000000000000000000000000000000000000000600052601260045260246000fd5b6000615a4982613ec3565b9150615a5483613ec3565b925082615a6457615a63615a0f565b5b828204905092915050565b6000615a7a82613ec3565b9150615a8583613ec3565b9250828202615a9381613ec3565b91508282048414831517615aaa57615aa961533d565b5b509291505056fea2646970667358221220d22d02a84b617d70be803d76534db091119bf396aaecc5fb94a03ffc92e59ea264736f6c63430008130033",
  "linkReferences": {},
  "deployedLinkReferences": {}
}